S01C00004269706F6C6172537465707065724669784B69742E737265630D
S11300000C942A000C9447000C9447000C9447006D
S11300100C9447000C9447000C9447000C949200F5
S11300200C9447000C9447000C9447000C94470030
S11300300C9447000C9447000C9447000C94470020
S11300400C9447000C9447000C9447000C94470010
S11300500C94470011241FBECFE5D8E0DEBFCDBF0E
S113006010E0A0E6B0E0E6E7F3E002C005900D92F0
S1130070A039B107D9F720E0A0E9B0E001C01D9292
S1130080AC39B207E1F70E94B4010C94B9010C94A5
S1130090000087B38F6087BB88B3807F88BB0895D7
S11300A088B3817F88BBC09A2FEF89E698E12150FD
S11300B080409040E1F700C0000088B3847F88BB93
S11300C0C29A2FEF89E698E1215080409040E1F7F1
S11300D000C0000088B3827F88BBC19A2FEF89E6F5
S11300E098E1215080409040E1F700C0000088B3BF
S11300F0887F88BBC39A2FEF89E698E1215080401E
S11301009040E1F700C0000008958EB58B608EBD6D
S11301101DBC1CBC8FE493EC9BBD8ABD89B7806178
S113012089BF08951F920F920FB60F9211240F905A
S11301300FBE0F901F90189525B32F70382F307F66
S1130140232B25BB25B361702E7F262B25BBA99AB3
S1130150EFEDFEE23197F1F700C0000025B32C7FEC
S113016025BB25B32F7082959295907F9827807F29
S11301709827822B85BB85B38E7F682B65BBA99A94
S11301808FED9EE20197F1F700C0000085B38C7FEC
S113019085BB08958FEF84BB60E070E083E090E05E
S11301A00E949C008FEF9CE70197F1F700C00000CC
S11301B060E070E083E090E00E949C008FEF9CE799
S11301C00197F1F700C0000060E070E083E090E088
S11301D00E949C008FEF9CE70197F1F700C000009C
S11301E060E070E082E090E00E949C008FEF9CE76A
S11301F00197F1F700C0000060E070E08CE090E04F
S11302000E949C008FEF9CE70197F1F700C000006B
S113021060E070E081E090E00E949C008FEF9CE73A
S11302200197F1F700C0000060E070E080E890E022
S11302300E949C008FEF9CE70197F1F700C000003B
S113024060E070E081E090E00E949C000895EF92ED
S1130250FF920F931F93CF93DF938C017C01C0E037
S1130260D0E009C0F70181917F0161E070E090E086
S11302700E949C002196F80101900020E9F7319733
S1130280E01BF10BCE17DF0768F3DF91CF911F91CD
S11302900F91FF90EF90089560E070E081E090E0AE
S11302A00E949C0060E070E080E890E00E949C0066
S11302B080E690E00E942701089560E070E081E00C
S11302C090E00E949C0060E070E080E890E00E9472
S11302D09C0080E790E00E94270160E070E080ECE1
S11302E090E00E949C0081E890E00E94270108951C
S11302F0CF9310929B00E0E9F0E01082C1E0C1834B
S113030082E082838FEF83838483858386838783DC
S1130310808781870E9449000E94CA000E9485004C
S11303202FEF89EF90E0215080409040E1F700C02A
S113033000000E944C012FEF89E698E12150804093
S11303409040E1F700C00000C0939B000E945D0153
S11303502FEF83ED90E3215080409040E1F700C0FF
S113036000007894CF9108950E9478010E94500073
S1090370FDCFF894FFCF5D
S1130376496E697469616C697A696E672E2E2E00FE
S11303864249504F4C41522054455354204B4954F2
S11303960020202053434F5250494F4E4950580095
S9030000FC
